:020000040800F2
:100000001804002045010008950600088D06000828
:10001000910600082F020008F10900080000000006
:100020000000000000000000000000008D07000834
:100030003302000800000000970600087908000855
:100040005F0100085F0100085F0100085F01000810
:100050005F0100085F0100085F0100085F01000800
:100060005F0100085F0100085F0100085F010008F0
:100070005F0100085F0100085F0100085F010008E0
:100080005F0100085F0100085F0100085F010008D0
:100090005F0100085F0100085F0100085F010008C0
:1000A0005F0100085F0100085F0100085F010008B0
:1000B0005F0100085F0100085F0100085F010008A0
:1000C0005F0100085F0100085F0100085F01000890
:1000D0005F0100085F0100085F0100085F01000880
:1000E0005F0100085F0100085F0100085F01000870
:1000F0005F0100085F0100085F0100085F01000860
:100100005F0100085F0100085F0100085F0100084F
:100110005F0100085F0100085F0100085F0100083F
:100120005F0100085F0100085F0100085F0100082F
:10013000DFF80CD000F04AF800480047C91000086A
:10014000180400200648804706480047FEE7FEE7FF
:10015000FEE7FEE7FEE7FEE7FEE7FEE7FEE7FEE777
:100160007D080008310100082DE9F05F05460020F8
:1001700092469B4688460646814640241BE0284618
:1001800041464746224600F042F853465A46C01AB6
:10019000914110D311461846224600F029F82D1A35
:1001A00067EB01084F4622460120002100F020F8AD
:1001B00017EB00094E41201EA4F10104DFDC484684
:1001C00031462A464346BDE8F09F0000064C074DE5
:1001D00006E0E06840F0010394E807009847103417
:1001E000AC42F6D3FFF7A8FF6C1100088C11000891
:1001F000202A04DB203A00FA02F1002070479140E7
:10020000C2F1200320FA03F3194390407047202ADB
:1002100004DB203A21FA02F00021704721FA02F3B0
:10022000D040C2F12002914008431946704700BFF8
:10023000FEE7704710B5A02000F07CFE08B9012051
:1002400010BD00F08FFE0020FAE72DE9F0410646D0
:100250000F46154600F0BAFEA02000F007FF00F0A0
:10026000E5FE00B125E0F8B200F000FF00F0DEFE90
:1002700000B11EE000F0AAFEA12000F0F7FE00F0A1
:10028000D5FE00B115E000240CE000F07DFE3055F5
:10029000681EA04202D000F031FE01E000F0B0FE86
:1002A000601C84B2AC42F0DB00F05CFE0120BDE8D3
:1002B000F08100F057FE0020F9E7000030B5ADF501
:1002C000017DFFF7B7FF28B934A000F093FB0DF5CF
:1002D000017D30BD37A000F08DFB002406E041A970
:1002E0000C55002001A90855601C84B2FF2CF6DDD6
:1002F00037A000F07FFB002406E041A8015D3BA091
:1003000000F078FB601C84B2FF2CF6DD39A000F011
:1003100071FB002406E001A8015D34A000F06AFB37
:10032000601C84B2FF2CF6DD4FF48072002141A8DE
:1003300000F0D4F818B937A000F05CFBC7E73BA089
:1003400000F058FB404800F0A6FD4FF480720021F9
:1003500001A8FFF77AFF18B93CA000F04BFBB6E705
:1003600040A000F047FB002510E001A8405D41A936
:10037000495D884203D041A000F03CFBA7E701A8FB
:10038000415D4BA000F036FB681C85B2FF2DECDD13
:1003900049A000F02FFB00BFFEE700002043686586
:1003A000636B2045455052414D206661696C200DBC
:1003B0000A00000020436865636B204545505241A8
:1003C0004D2073756363657373200D0A0000000090
:1003D0000D0A205468652077726974652064617421
:1003E0006120617265203A200D0A000025303258E4
:1003F000200000000D0A204E6F772C546865207293
:10040000656164206461746120617265203A200D29
:100410000A0000000D0A2057726974652045455096
:1004200052414D206661696C200D0A000D0A20576B
:10043000726974652045455052414D207375636360
:10044000657373200D0A0000FFFF0F0020526561E5
:10045000642045455052414D206661696C200D0A6B
:100460000000000020526561642045455052414D16
:100470002073756363657373200D0A000D0A2054A1
:100480006865207772697465206461746120616EAB
:10049000642072656164206461746120617265200A
:1004A000646966666572656E74200D0A000000005E
:1004B00020253032580000000D0A2052656164206A
:1004C000616E642057726974652045455052414DF4
:1004D0002073756363657373200D0A002DE9F0477F
:1004E000074688469146464600242CE014B106F0A3
:1004F0000700E8B900F036FD00250AE000F066FDCF
:10050000A02000F0B3FD00F091FD00B904E0681CEC
:1005100085B2B5F57A7FF1DB00BFB5F57A7F00D102
:1005200018E0F0B200F0A2FD00F080FD00B111E093
:10053000385D00F09BFD00F079FD00B10AE0701C11
:1005400086B2601C84B24C45D0DB00F00BFD01206C
:10055000BDE8F08700F006FD0020F9E72DE9F04145
:10056000024600250026002000230024002791F8E1
:1005700003C00CF00F0591F803C00CF0100CBCF197
:10058000000F03D091F802C04CEA050591F800C0B5
:10059000BCF1000F31D0146800202BE04FF0010CAB
:1005A0000CFA00F3B1F800C00CEA03069E4220D119
:1005B00083004FF00F0C0CFA03F7BC4305FA03FC61
:1005C0004CEA040491F803C0BCF1280F06D14FF0A7
:1005D000010C0CFA00FCC2F814C00AE091F803C048
:1005E000BCF1480F05D14FF0010C0CFA00FCC2F829
:1005F00010C0401C0828D1D31460B1F800C0BCF171
:10060000FF0F34DD546800202EE000F1080C4FF09D
:10061000010808FA0CF3B1F800C00CEA03069E4288
:1006200021D183004FF00F0C0CFA03F7BC4305FAFD
:1006300003FC4CEA040491F803C0BCF1280F05D177
:1006400000F1080C08FA0CF8C2F8148091F803C005
:10065000BCF1480F07D100F1080C4FF0010808FA6F
:100660000CF8C2F81080401C0828CED35460BDE8B6
:10067000F0810246002093680B400BB1012000E09E
:1006800000207047416170470161704700BFFEE77D
:1006900000BFFEE77047704729B1064A92690243DE
:1006A000044B9A6104E0034A92698243014B9A61C8
:1006B000704700000010024030B5002100220024E5
:1006C00000232D4D6D6805F00C0121B1042905D0E2
:1006D000082923D105E0294D056022E0274D05605A
:1006E0001FE0254D6D6805F47012234D6D6805F40B
:1006F0008034022505EB92421CB9214D554305601B
:100700000BE01D4D6D6805F400351DB11C4D5543C2
:10071000056002E0194D5543056002E0174D056084
:1007200000BF00BF144D6D6805F0F0010909154DBB
:100730006B5C0568DD4045600F4D6D6805F4E06158
:10074000090A104D6B5C4568DD4085600A4D6D6897
:1007500005F46051C90A0B4D6B5C4568DD40C5600E
:10076000054D6D6805F44041890B074D6B5CC5680C
:10077000B5FBF3F5056130BD0010024000127A00B0
:1007800000093D000000002010000020704710B557
:1007900000F002F810BD00000CB5002001900090A0
:1007A0003348006840F480303149086000BF304869
:1007B000006800F4003000900198401C01900098FF
:1007C00018B90198B0F5A06FF1D12948006800F47C
:1007D000003010B10120009001E00020009000984E
:1007E000012843D12348006840F0100021490860E7
:1007F0000846006820F0030008600846006840F0E2
:10080000020008601A484068194948600846406874
:1008100048600846406840F4806048600846406888
:1008200020F47C1048600846406840F4E8104860B6
:100830000846006840F08070086000BF0C480068FF
:1008400000F000700028F9D00948406820F003004B
:10085000074948600846406840F00200486000BF11
:100860000348406800F00C000828F9D10CBD0000D6
:1008700000100240002002407047000010B51348ED
:10088000006840F0010011490860084640681049BE
:1008900008400E494860084600680E4908400B4968
:1008A00008600846006820F4802008600846406818
:1008B00020F4FE0048604FF41F008860FFF767FFD8
:1008C0004FF000600449086010BD000000100240B5
:1008D0000000FFF8FFFFF6FE08ED00E021B182897D
:1008E00042F40052828104E082894DF6FF731A407F
:1008F0008281704702460020B1F5007F00D100BF21
:1009000013880B400BB1012000E00020704700006D
:100910002DE9F04786B005460E460024A24600BFEA
:10092000A1460027B08900B100BF2F462C8A4CF6A3
:10093000FF700440F08804432C82AC894EF6F3101B
:100940000440B08831890843718908430443AC816D
:10095000AC8A4FF6FF400440B0890443AC8201A842
:10096000FFF7AAFE1F48874202D1DDF810A001E080
:10097000DDF80CA0A88900F4004040B10AEBCA00E1
:1009800000EB0A1031684900B0FBF1F807E00AEB10
:10099000CA0000EB0A1031688900B0FBF1F864204E
:1009A000B8FBF0F004012009642101FB1089A8893B
:1009B00000F4004040B1322000EBC900B0FBF1F080
:1009C00000F00700044308E0322000EB0910642126
:1009D000B0FBF1F000F00F0004432C8106B0BDE83D
:1009E000F087000000380140C1F3080282807047A0
:1009F00000BFFEE70FB4054B10B503A9044A0298E7
:100A000000F018F810BC5DF814FB0000A90E0008F7
:100A10001400002002E008C8121F08C1002AFAD101
:100A200070477047002001E001C1121F002AFBD16E
:100A3000704700002DE9FF4F8DB00F460546002698
:100A400006E025280BD0DDE90F1290476D1C761CBF
:100A500028780028F5D111B03046BDE8F08F002489
:100A6000A246A1460122EC4900E0044315F8013FEB
:100A7000203B02FA03F00842F7D128782A2810D048
:100A80006FF02F022878A0F13001092914D80AEB61
:100A90008A0102EB410144F0020400EB010A6D1CE3
:100AA000F0E701CF5FEA000A03D544F40054CAF12D
:100AB000000A44F002046D1C28782E2817D115F87E
:100AC000010F44F004042A280ED06FF02F0228787A
:100AD000A0F1300109290AD809EB890102EB410193
:100AE00000EB01096D1CF2E757F8049B6D1C287898
:100AF0006C280FD006DC4C2817D068280DD06A2847
:100B000014D104E0742810D07A280FD10DE044F4F9
:100B100000140AE044F4801401E044F440146978BD
:100B2000814202D104F580146D1C6D1C2A786E2A56
:100B30001FD00CDC632A31D004DC002A8BD0582A69
:100B400011D1A3E0642A68D0692A0CD165E0732A28
:100B50002ED004DC6F2A73D0702A04D19BE0752A52
:100B60006FD0782A6ED01046DDE90F129047761CC0
:100B700050E1C4F30250022806D0032809D004280B
:100B800001CF09D0066045E101CFF117C0E900614E
:100B900040E101CF06803DE106703BE117F8040B10
:100BA0008DF8000000208DF80100EB46012003E0E5
:100BB00057F804BB4FF0FF3061074FF0000102D43B
:100BC0000DE008F10101884649450FDA8045F8DB60
:100BD0001BF808100029F4D108E008F1010188464B
:100BE0008142FADB1BF808100029F6D1DDE90F235A
:100BF000AAEB08008146214600F036F9304400EBAC
:100C0000080604E0DDE90F121BF8010B9047B8F16C
:100C10000108F7D221464846F7E00A21C4F30253FF
:100C20004FF0000B0891022B04D001CFC117032B0A
:100C300009D00AE0FF1D27F00707F7E8020108E0E6
:100C400032E01FE020E000B2C117042B01D140B216
:100C5000C117031E71F1000307DA4FF0000CD0EB4F
:100C60000C006CEB01012D2302E0230504D52B239E
:100C70008DF82430012303E0E30701D02023F7E7B8
:100C8000984658E00A2110E010210EE010204FF0A5
:100C9000000B08900CE010214FF0000B44F004040E
:100CA0004FF00809089103E008214FF0000B08916C
:100CB000C4F30253022B04D001CF0021032B06D032
:100CC00006E0FF1D27F00707F7E8020103E080B206
:100CD000042B00D1C0B24FF0000823072BD5702A97
:100CE00007D0DDF820C08CF0100C5CEA0B0C05D0AE
:100CF0000EE040238DF82430012308E050EA010380
:100D000006D030238DF824308DF825200223984614
:100D1000DDF820C08CF0080C5CEA0B0C0BD150EA1B
:100D2000010301D1630706D530238DF824304FF03D
:100D30000108A9F10109582A04D038A20B9208AA87
:100D40000A920BE03AA2F9E75B46089AFFF70CFA21
:100D50000B9B9B5C0A9A521E0A92137050EA010286
:100D6000F2D10A98ADEB000000F1200B600702D52C
:100D700024F4803401E04FF00109D94502DDA9EBEC
:100D80000B0000E0002000EB0B0141440890AAEBAF
:100D9000010AE00306D4DDE90F232146504600F0A6
:100DA00063F806444FF0000908E009A911F80900AA
:100DB000DDE90F12904709F10109761CC145F4DB0A
:100DC000E0030CD5DDE90F232146504600F04CF836
:100DD000064404E0DDE90F1230209047761C0899A4
:100DE000481E08900029F5DC08E00A980A99007866
:100DF000491C0A91DDE90F129047761CBBF10001F6
:100E0000ABF1010BF1DC21465046DDE90F2300F088
:100E100019F806446D1C1BE60928010030313233F5
:100E20003435363738396162636465660000000026
:100E30003031323334353637383941424344454610
:100E4000000000002DE9F041044600251E4617462B
:100E5000880404D405E039462020B0476D1C641E88
:100E6000F9D52846BDE8F0812DE9F041044600257A
:100E70001E469046C80301D5302700E0202788048D
:100E800004D505E041463846B0476D1C641EF9D5CF
:100E90002846BDE8F08101B502E00098401E0090B0
:100EA00000980028F9D108BD70B504460D46E1B29E
:100EB0000548FFF799FD00BF80210348FFF71AFDA1
:100EC0000028F9D0204670BD0038014008B5012146
:100ED0000820FFF7E1FB14208DF80300C020ADF8D7
:100EE000000003208DF8020069460348FFF736FB37
:100EF00000F038F808BD0000000C014010B580215A
:100F00000B48FFF7BFFB00F025F840210848FFF72A
:100F1000BBFB00F01FF840210548FFF7B3FB00F0D2
:100F200019F880210248FFF7AFFB00F013F810BD5D
:100F3000000C014070B50446FFF7C8FF00F046F80A
:100F4000204600F093F800F071F8054600F00AF82A
:100F5000284670BD002001E0411CC8B20A28FBDB16
:100F60007047000010B580210648FFF78BFB402139
:100F70000448FFF789FBFFF7EDFF80210148FFF7E9
:100F800083FB10BD000C014070B50024002516E065
:100F90006006040E40210C48FFF776FBFFF7DAFFEE
:100FA00080210948FFF765FB08B1601CC4B24021ED
:100FB0000548FFF767FBFFF7CDFF681CC5B2082D9A
:100FC000E6DB204670BD0000000C014010B580211A
:100FD0000A48FFF759FB40210848FFF755FBFFF788
:100FE000B9FF80210548FFF74DFBFFF7B3FF402114
:100FF0000248FFF747FBFFF7ADFF10BD000C0140B3
:1010000010B580210848FFF73FFBFFF7A3FF402101
:101010000548FFF739FBFFF79DFF40210248FFF726
:1010200031FBFFF797FF10BD000C014010B5802188
:101030000D48FFF729FBFFF78DFF40210A48FFF716
:1010400023FBFFF787FF80210748FFF712FB08B952
:10105000002400E0012440210348FFF713FBFFF7C1
:1010600079FF204610BD0000000C014070B5044619
:10107000002523E004F0800020B180211148FFF713
:1010800003FB03E080210F48FFF7FCFAFFF762FF44
:1010900040210C48FFF7F8FAFFF75CFF40210948B0
:1010A000FFF7F0FA072D03D180210648FFF7ECFA8D
:1010B0006006040EFFF74EFF681CC5B2082DD9DB91
:1010C00070BD0000000C014000F01AF803A0FFF70B
:1010D00091FCFFF7F3F800BFFEE700000D0A20497E
:1010E000324320616E642045455052414D20736F5C
:1010F00066742073696D756C617465200D0A00005B
:1011000000B585B001218803FFF7C6FA012104204C
:10111000FFF7C2FA18208DF813004FF40070ADF8F5
:10112000100003208DF8120004A90E48FFF716FAEC
:101130004FF4E13000900020ADF80C000C20ADF829
:101140000A000020ADF80800ADF80600ADF8040074
:1011500069460548FFF7DCFB01210348FFF7BEFBAA
:1011600005B000BD00080140003801408C110008A6
:101170000000002018000000140A0008A411000854
:101180001800002000040000240A000800000000ED
:101190000102030401020304060708090204060809
:0411A000000000004B
:0400000508000131BD
:00000001FF
