:020000040800F2
:100000001804002045010008FF050008F705000856
:10001000FB0500082F0200085D0900080000000031
:10002000000000000000000000000000F9060008C9
:10003000330200080000000001060008E507000880
:100040005F0100085F0100085F0100085F01000810
:100050005F0100085F0100085F0100085F01000800
:100060005F0100085F0100085F0100085F010008F0
:100070005F0100085F0100085F0100085F010008E0
:100080005F0100085F0100085F0100085F010008D0
:100090005F0100085F0100085F0100085F010008C0
:1000A0005F0100085F0100085F0100085F010008B0
:1000B0005F0100085F0100085F0100085F010008A0
:1000C0005F0100085F0100085F0100085F01000890
:1000D0005F0100085F0100085F0100085F01000880
:1000E0005F0100085F0100085F0100085F01000870
:1000F0005F0100085F0100085F0100085F01000860
:100100005F0100085F0100085F0100085F0100084F
:100110005F0100085F0100085F0100085F0100083F
:100120005F0100085F0100085F0100085F0100082F
:10013000DFF80CD000F04AF8004800473D100008F6
:10014000180400200648804706480047FEE7FEE7FF
:10015000FEE7FEE7FEE7FEE7FEE7FEE7FEE7FEE777
:10016000E9070008310100082DE9F05F054600208D
:1001700092469B4688460646814640241BE0284618
:1001800041464746224600F042F853465A46C01AB6
:10019000914110D311461846224600F029F82D1A35
:1001A00067EB01084F4622460120002100F020F8AD
:1001B00017EB00094E41201EA4F10104DFDC484684
:1001C00031462A464346BDE8F09F0000064C074DE5
:1001D00006E0E06840F0010394E807009847103417
:1001E000AC42F6D3FFF7A8FFDC100008FC100008B3
:1001F000202A04DB203A00FA02F1002070479140E7
:10020000C2F1200320FA03F3194390407047202ADB
:1002100004DB203A21FA02F00021704721FA02F3B0
:10022000D040C2F12002914008431946704700BFF8
:10023000FEE7704710B5A02000F030FE08B901209D
:1002400010BD00F043FE0020FAE72DE9F04106461C
:100250000F46154600F076FEA12000F0C1FE00F02A
:100260009FFE00B11EE000F06DFEF8B200F0B8FE97
:1002700000F096FE00B115E000240CE000F038FE1E
:100280003055681EA04202DD00F0ECFD01E000F0F8
:1002900071FE601C84B2AC42F0DB00F017FE01205E
:1002A000BDE8F08100F012FE0020F9E730B5ADF5B1
:1002B000017DFFF7BFFF28B92AA000F051FB0DF523
:1002C000017D30BD2CA000F04BFB002503E041A9CF
:1002D0004D55681C85B2FF2DF9DD4FF48072002169
:1002E00041A800F0B1F818B929A000F039FBE6E701
:1002F0002CA000F035FB6FF07F4000F082FD4FF442
:100300008072002101A8FFF7A0FF18B92BA000F010
:1003100027FBD4E72EA000F023FB00241AE001A85D
:10032000005D804208D041A8015D2FA000F018FBBD
:100330002FA000F015FBC2E701A8015D38A000F076
:100340000FFB04F00F000F2802D110A000F008FBF3
:10035000601C84B2FF2CE2DD33A000F001FB00BF83
:10036000FEE70000436865636B2045455052414DF0
:10037000206661696C0D0A00436865636B20454522
:100380005052414D20737563636573730D0A00000D
:1003900057726974652045455052414D2066616928
:1003A0006C0D0A0057726974652045455052414DE5
:1003B00020737563636573730D0A00005265616491
:1003C0002045455052414D206661696C0D0A000080
:1003D000526561642045455052414D2073756363F9
:1003E0006573730D0A000000307825303258200004
:1003F0005468652077726974652064617461206156
:100400006E6420726561642064617461206172654C
:1004100020646966666572656E740D0A00000000EE
:1004200020307825303258005265616420616E6456
:100430002057726974652045455052414D207375AF
:1004400063636573730D0A002DE9F047074689461B
:10045000904600242CE014B106F00700E8B900F043
:1004600035FD00250AE000F06DFDA02000F0B8FD8C
:1004700000F096FD00B904E0681C85B2B5F57A7FFE
:10048000F1DB00BFB5F57A7F00D118E0F0B200F0E3
:10049000A7FD00F085FD00B111E0385D00F0A0FD82
:1004A00000F07EFD00B10AE0701C86B2601C84B2D0
:1004B0004445D0DB00F00AFD0120BDE8F08700F0E4
:1004C00005FD0020F9E72DE9F04102460025002650
:1004D000002000230024002791F803C00CF00F0532
:1004E00091F803C00CF0100CBCF1000F03D091F890
:1004F00002C04CEA050591F800C0BCF1000F31D0F4
:10050000146800202BE04FF0010C0CFA00F3B1F856
:1005100000C00CEA03069E4220D183004FF00F0C6E
:100520000CFA03F7BC4305FA03FC4CEA040491F807
:1005300003C0BCF1280F06D14FF0010C0CFA00FCEF
:10054000C2F814C00AE091F803C0BCF1480F05D10D
:100550004FF0010C0CFA00FCC2F810C0401C082837
:10056000D1D31460B1F800C0BCF1FF0F34DD546882
:1005700000202EE000F1080C4FF0010808FA0CF3FF
:10058000B1F800C00CEA03069E4221D183004FF06F
:100590000F0C0CFA03F7BC4305FA03FC4CEA040405
:1005A00091F803C0BCF1280F05D100F1080C08FA3E
:1005B0000CF8C2F8148091F803C0BCF1480F07D1C1
:1005C00000F1080C4FF0010808FA0CF8C2F810808E
:1005D000401C0828CED35460BDE8F08102460020BC
:1005E00093680B400BB1012000E00020704741618F
:1005F00070470161704700BFFEE700BFFEE770472C
:100600007047000029B1064A92690243044B9A617F
:1006100004E0034A92698243014B9A6170470000EB
:100620000010024030B500210022002400232D4D8F
:100630006D6805F00C0121B1042905D0082923D1EA
:1006400005E0294D056022E0274D05601FE0254D9E
:100650006D6805F47012234D6D6805F48034022531
:1006600005EB92421CB9214D554305600BE01D4D31
:100670006D6805F400351DB11C4D5543056002E061
:10068000194D5543056002E0174D056000BF00BFDE
:10069000144D6D6805F0F0010909154D6B5C056896
:1006A000DD4045600F4D6D6805F4E061090A104DAD
:1006B0006B5C4568DD4085600A4D6D6805F46051EE
:1006C000C90A0B4D6B5C4568DD40C560054D6D6822
:1006D00005F44041890B074D6B5CC568B5FBF3F52C
:1006E000056130BD0010024000127A0000093D0093
:1006F0000000002010000020704710B500F002F844
:1007000010BD00000CB50020019000903348006837
:1007100040F480303149086000BF3048006800F480
:10072000003000900198401C0190009818B9019881
:10073000B0F5A06FF1D12948006800F4003010B185
:100740000120009001E0002000900098012843D192
:100750002348006840F010002149086008460068FE
:1007600020F0030008600846006840F002000860BE
:100770001A48406819494860084640684860084679
:10078000406840F4806048600846406820F47C106F
:1007900048600846406840F4E81048600846006831
:1007A00040F08070086000BF0C48006800F00070E6
:1007B0000028F9D00948406820F003000749486044
:1007C0000846406840F00200486000BF03484068A7
:1007D00000F00C000828F9D10CBD00000010024008
:1007E000002002407047000010B51348006840F038
:1007F00001001149086008464068104908400E4948
:100800004860084600680E4908400B4908600846E1
:10081000006820F4802008600846406820F4FE004C
:1008200048604FF41F008860FFF767FF4FF00060DB
:100830000449086010BD0000001002400000FFF8ED
:10084000FFFFF6FE08ED00E021B1828942F400527C
:10085000828104E082894DF6FF731A4082817047DD
:1008600002460020B1F5007F00D100BF13880B4085
:100870000BB1012000E00020704700002DE9F04797
:1008800086B005460E460024A24600BFA1460027BA
:10089000B08900B100BF2F462C8A4CF6FF7004408F
:1008A000F08804432C82AC894EF6F3100440B088E3
:1008B00031890843718908430443AC81AC8A4FF6FF
:1008C000FF400440B0890443AC8201A8FFF7AAFEB0
:1008D0001F48874202D1DDF810A001E0DDF80CA02E
:1008E000A88900F4004040B10AEBCA0000EB0A10EE
:1008F00031684900B0FBF1F807E00AEBCA0000EBF1
:100900000A1031688900B0FBF1F86420B8FBF0F000
:1009100004012009642101FB1089A88900F400402A
:1009200040B1322000EBC900B0FBF1F000F007004D
:10093000044308E0322000EB09106421B0FBF1F021
:1009400000F00F0004432C8106B0BDE8F0870000E2
:1009500000380140C1F308028280704700BFFEE703
:100960000FB4054B10B503A9044A029800F018F81B
:1009700010BC5DF814FB0000150E000814000020E8
:1009800002E008C8121F08C1002AFAD17047704758
:10099000002001E001C1121F002AFBD170470000B6
:1009A0002DE9FF4F8DB00F460546002606E02528AD
:1009B0000BD0DDE90F1290476D1C761C28780028BB
:1009C000F5D111B03046BDE8F08F0024A246A14613
:1009D0000122EC4900E0044315F8013F203B02FAF4
:1009E00003F00842F7D128782A2810D06FF02F02A0
:1009F0002878A0F13001092914D80AEB8A0102EB0A
:100A0000410144F0020400EB010A6D1CF0E701CF44
:100A10005FEA000A03D544F40054CAF1000A44F026
:100A200002046D1C28782E2817D115F8010F44F008
:100A300004042A280ED06FF02F022878A0F130018C
:100A400009290AD809EB890102EB410100EB0109F0
:100A50006D1CF2E757F8049B6D1C28786C280FD0AA
:100A600006DC4C2817D068280DD06A2814D104E081
:100A7000742810D07A280FD10DE044F400140AE055
:100A800044F4801401E044F440146978814202D1B6
:100A900004F580146D1C6D1C2A786E2A1FD00CDCA6
:100AA000632A31D004DC002A8BD0582A11D1A3E06C
:100AB000642A68D0692A0CD165E0732A2ED004DC40
:100AC0006F2A73D0702A04D19BE0752A6FD0782AE0
:100AD0006ED01046DDE90F129047761C50E1C4F34A
:100AE0000250022806D0032809D0042801CF09D0DB
:100AF000066045E101CFF117C0E9006140E101CF97
:100B000006803DE106703BE117F8040B8DF800000C
:100B100000208DF80100EB46012003E057F804BBEC
:100B20004FF0FF3061074FF0000102D40DE008F1F3
:100B30000101884649450FDA8045F8DB1BF80810AB
:100B40000029F4D108E008F1010188468142FADB6E
:100B50001BF808100029F6D1DDE90F23AAEB0800E5
:100B60008146214600F036F9304400EB080604E0E7
:100B7000DDE90F121BF8010B9047B8F10108F7D21D
:100B800021464846F7E00A21C4F302534FF0000B18
:100B90000891022B04D001CFC117032B09D00AE022
:100BA000FF1D27F00707F7E8020108E032E01FE029
:100BB00020E000B2C117042B01D140B2C117031EBF
:100BC00071F1000307DA4FF0000CD0EB0C006CEB76
:100BD00001012D2302E0230504D52B238DF82430B9
:100BE000012303E0E30701D02023F7E7984658E00C
:100BF0000A2110E010210EE010204FF0000B0890A9
:100C00000CE010214FF0000B44F004044FF00809F1
:100C1000089103E008214FF0000B0891C4F3025340
:100C2000022B04D001CF0021032B06D006E0FF1DCC
:100C300027F00707F7E8020103E080B2042B00D198
:100C4000C0B24FF0000823072BD5702A07D0DDF87B
:100C500020C08CF0100C5CEA0B0C05D00EE0402399
:100C60008DF82430012308E050EA010306D0302338
:100C70008DF824308DF8252002239846DDF820C019
:100C80008CF0080C5CEA0B0C0BD150EA010301D18B
:100C9000630706D530238DF824304FF00108A9F101
:100CA0000109582A04D038A20B9208AA0A920BE034
:100CB0003AA2F9E75B46089AFFF756FA0B9B9B5C52
:100CC0000A9A521E0A92137050EA0102F2D10A984F
:100CD000ADEB000000F1200B600702D524F4803456
:100CE00001E04FF00109D94502DDA9EB0B0000E05E
:100CF000002000EB0B0141440890AAEB010AE0033D
:100D000006D4DDE90F232146504600F063F806447F
:100D10004FF0000908E009A911F80900DDE90F12F8
:100D2000904709F10109761CC145F4DBE0030CD5BD
:100D3000DDE90F232146504600F04CF8064404E05C
:100D4000DDE90F1230209047761C0899481E089064
:100D50000029F5DC08E00A980A990078491C0A91F4
:100D6000DDE90F129047761CBBF10001ABF1010BDE
:100D7000F1DC21465046DDE90F2300F019F8064466
:100D80006D1C1BE60928010030313233343536370B
:100D900038396162636465660000000030313233C7
:100DA0003435363738394142434445460000000067
:100DB0002DE9F041044600251E461746880404D458
:100DC00005E039462020B0476D1C641EF9D5284641
:100DD000BDE8F0812DE9F041044600251E4690460D
:100DE000C80301D5302700E02027880404D505E09A
:100DF00041463846B0476D1C641EF9D52846BDE80B
:100E0000F08101B502E00098401E00900098002893
:100E1000F9D108BD70B504460D46E1B20548FFF7AB
:100E200099FD00BF80210348FFF71AFD0028F9D083
:100E3000204670BD0038014008B501210820FFF7A9
:100E4000E1FB14208DF80300C020ADF80000032062
:100E50008DF8020069460248FFF735FB08BD000027
:100E6000000C014010B580210B48FFF7C0FB00F0DB
:100E700025F840210848FFF7BCFB00F01FF840218F
:100E80000548FFF7B4FB00F019F880210248FFF78E
:100E9000B0FB00F013F810BD000C014070B5044623
:100EA000FFF7CAFF00F04EF8204600F099F800F076
:100EB00077F8054600F00AF8284670BD002001E0EA
:100EC000411CC8B20A28FBDB7047000010B5402166
:100ED0000648FFF78EFB80210448FFF788FBFFF7E9
:100EE000EDFF80210148FFF784FB10BD000C01409D
:100EF00070B5002500241EE06806050E402110484C
:100F0000FFF777FBFFF7DAFF80210D48FFF766FB5D
:100F100008B1681CC5B2FFF7D1FF40210848FFF7B0
:100F200066FBFFF7CBFF072C03D180210448FFF7B6
:100F300060FB601CC4B2082CDEDB284670BD0000DC
:100F4000000C014010B540210948FFF752FB8021F9
:100F50000748FFF74EFBFFF7B1FF80210448FFF77A
:100F600046FBFFF7ABFF40210148FFF740FB10BDF8
:100F7000000C014010B580210848FFF73AFBFFF74D
:100F80009DFF40210548FFF734FBFFF797FF402105
:100F90000248FFF72CFBFFF791FF10BD000C01404A
:100FA00010B580210D48FFF724FBFFF787FF402194
:100FB0000A48FFF71EFBFFF781FF80210748FFF774
:100FC0000DFB08B9002400E0012440210348FFF78D
:100FD0000EFBFFF773FF204610BD0000000C014020
:100FE00070B50446002523E040211348FFF701FBBC
:100FF000FFF764FF04F0800020B180210E48FFF766
:10100000F8FA03E080210C48FFF7F1FAFFF756FFEA
:1010100040210948FFF7EBFAFFF750FF072D03D1F6
:1010200080210548FFF7E5FA6006040E681CC5B28A
:10103000082DD9DB70BD0000000C014000F018F84D
:1010400003A0FFF78DFCFFF731F900BFFEE70000BA
:1010500049324320616E642045455052414D207312
:101060006F66742073696D756C6174650D0A00009C
:1010700000B585B001218803FFF7C4FA01210420DF
:10108000FFF7C0FA18208DF813004FF40070ADF888
:10109000100003208DF8120004A90E48FFF713FA80
:1010A0004FF4E13000900020ADF80C000C20ADF8BA
:1010B0000A000020ADF80800ADF80600ADF8040005
:1010C00069460548FFF7DAFB01210348FFF7BCFB3F
:1010D00005B000BD0008014000380140FC100008C8
:1010E000000000201800000080090008141100080A
:1010F0001800002000040000900900080000000013
:101100000102030401020304060708090204060899
:0411100000000000DB
:0400000508000131BD
:00000001FF
